:020000040800F2
:10000000400E0020A9010008212A0008951C0008C4
:100010001D2A0008DD020008ED3200080000000083
:10002000000000000000000000000000812E000819
:10003000D103000800000000DD2C00087D2F00081F
:10004000C3010008C3010008C3010008C301000880
:10005000C3010008C3010008C3010008C301000870
:10006000C3010008C3010008C3010008C301000860
:10007000C3010008C3010008C3010008C301000850
:10008000C301000805030008C301000800000000C8
:10009000000000000000000000000000C301000894
:1000A000C3010008C3010008C3010008C301000820
:1000B000C3010008C3010008C3010008991C00081F
:1000C000C3010008C3010008C3010008E12C0008B7
:1000D000C3010008C3010008A932000800000000A5
:1000E000C3010008C3010008C301000800000000AC
:1000F000000000000000000000000000C301000834
:1001000000000000C3010008C3010008C30100088B
:1001100000000000000000000000000000000000DF
:10012000C3010008C3010008C30100081903000847
:10013000C3010008000000000000000000000000F3
:10014000000000000000000000000000C3010008E3
:10015000C3010008C3010008C3010008B932000848
:10016000C3010008C30100080000000000000000F7
:10017000000000000000000000000000000000007F
:1001800000000000C30100080000000000000000A3
:10019000C3010008DFF80CD000F08EF800480047DB
:1001A0002D350008400E00200648804706480047CD
:1001B000FEE7FEE7FEE7FEE7FEE7FEE7FEE7FEE717
:1001C000FEE7FEE729300008950100082DE9F05F01
:1001D0000546002092469B468846064681464024B6
:1001E0001BE0284641464746224600F054F8534655
:1001F0005A46C01A914110D311461846224600F0C3
:100200003BF82D1A67EB01084F46224601200021DA
:1002100000F032F817EB00094E41201EA4F1010452
:10022000DFDC484631462A464346BDE8F09FD2B25D
:1002300001E000F8012B491EFBD270470022F6E7CF
:1002400010B513460A4604461946FFF7F0FF20464C
:1002500010BD10B5044604E00B7800F8013B03B173
:10026000491C521EF8D2204610BD421C10F8011B3A
:100270000029FBD1801A7047202A04DB203A00FABB
:1002800002F1002070479140C2F1200320FA03F3ED
:10029000194390407047202A04DB203A21FA02F0EB
:1002A0000021704721FA02F3D040C2F120029140B0
:1002B0000843194670470000064C074D06E0E06809
:1002C00040F0010394E8070098471034AC42F6D39D
:1002D000FFF764FF5843000878430008FEE700007A
:1002E00080B5002000F002F880BD000080B5024615
:1002F00040F23000C2F200004FF48061FFF797FF38
:1003000080BD000080B500F011F840F64400C2F254
:10031000000000F0A9F980BD80B500F007F840F6B4
:10032000A400C2F2000000F09FF980BD80B546F243
:100330000040C4F202000068000148BF03F05AF90F
:1003400080BD0000D0F800C06FF00F024AF6AB236A
:1003500052FA8CF2CAF6AA230146A2FB0330000926
:1003600005A31B5C40F2FF302CEA00005F2A88BF27
:100370000430C1E916037047000610160006101677
:100380008269816AB2F5005F06D06AB9022912D08B
:10039000012914D0D1B90EE0032917D8DFE801F004
:1003A000020B020F0120704703293CBF0120704758
:1003B0001CBF00207047C06AC0F300607047C06A6D
:1003C000A0F1C070B0FA80F040097047002070477B
:1003D0007047000080B503F02FF880BD2DE9F04F85
:1003E00089B015468B46064600F0DCF8824600F0E0
:1003F000D3F8069000F0DCF8BAF1000F059052D067
:100400007F2ED8BFBBF13F0F77DC0AEB8A00304468
:10041000012872DB0BEBCA0001286EDB43F6586142
:1004200005EB8500C0F60001084400250190CDE9E8
:10043000026B05E0049DDDE9026B0135062D5CD001
:10044000052D01D1002003E00198284403F0D0F8E5
:1004500005FB0A690021049507E000BF0799089889
:10046000013140100829D344E4D0CDE90710C0077A
:1004700006980599074608BF0F46814208BF002F1E
:10048000ECD0002409EB04055646D84628464146E0
:100490003A4602F0FDFC013E08F10108F6D10134B4
:1004A0005445EFD1DAE7062ED8BFBBF1780F24DC34
:1004B000A5F1200043F668085FFA80F9C0F600084D
:1004C00008EB0915002700BFEA5D0BEB070130467A
:1004D00002F00EFF0137082FF6D14FEA091008305D
:1004E000771C08EB00050026AA5D0BEB06013846D9
:1004F00002F0FEFE0136082EF6D109B0BDE8F08FFD
:100500002DE9F04F81B090468A46834600F04AF8C4
:10051000C8B100EB40014C004FEAC00900265FFA69
:100520008AF75D46F0B218F8002032B30A2A07D0E5
:10053000E8B23946FFF752FF54FA85F50136F1E784
:10054000CA440136EBE798F80000B0B1002400BFC0
:10055000C2B258465146FFF741FF0134BAF1700F5D
:100560000AF1080AE0B2C8BF4FF0000A18F800000C
:10057000C8BF0BF1020B0028EAD101B0BDE8F08F33
:1005800080B502F0B5FB02F079FA80BDEFF3108080
:1005900072B600BFFEE7000040F22000C2F2000089
:1005A0000078704740F63000C2F2000000787047D3
:1005B00040F63200C2F200000078704770B5866DD8
:1005C000044600F051FA94F83510022925D1054669
:1005D0002068216C026822F016020260426922F053
:1005E0008002426109B9A16C19B1016821F00801CA
:1005F0000160016821F00101016000BF206800680E
:10060000C0070ED000F030FA401B0628F6D3202099
:100610006065032084F835000CE0802060650120CF
:1006200008E0E06D3F2101FA00F0B060012084F89D
:1006300035000020002184F8341070BD90F835108A
:10064000022909D1052180F835100068016821F0E0
:100650000101016000207047802141650120704741
:1006600090F8350070470000F0B581B004460020D6
:10067000009040F21C00C2F200000268D4E916604B
:1006800048F2B51337680821C1F64E33814039422C
:10069000A2FB03250CD0226813685B0708D51368FA
:1006A00023F004031360B160616D41F001016165E5
:1006B00001218140394208D022685269120604D5CE
:1006C000B160616D41F002016165042181403942F0
:1006D00008D022681268920704D5B160616D41F0BC
:1006E0000401616510218140394215D020680268FB
:1006F000120711D5B16002680168520306D4C9051A
:1007000006D4016821F00801016001E0080342D429
:10071000216C09B120468847E16D202000FA01F2E2
:100720003A4244D020680368DB0640D5B26094F8B2
:1007300035300268052B1ED122F016020260426994
:1007400022F080024261226C0AB9A26C1AB10268DE
:1007500022F0080202603F208840B060012084F847
:100760003500216D0020002984F8340040D0204657
:10077000884701B0F0BD0168520310D4C90512D4F6
:10078000016821F010010160012084F8350000208B
:1007900084F8340007E0A16C0029BBD1BCE7080352
:1007A00001D4616C00E0E16B09B120468847606DBF
:1007B000F0B1606DC00717D0052084F835002068BF
:1007C000A90A026822F00102026000BF009A013209
:1007D0008A42009202D80268D207F7D1012084F839
:1007E0003500002084F83400E16C09B120468847C8
:1007F00001B0F0BD2DE9F041044600F035F9C4B177
:100800000546022084F835000020216884F8340071
:10081000086820F00100086026683068C0070BD027
:1008200000F022F9401B0528F6D9032120220320DD
:1008300042E00120BDE8F081306848F23F01CFF28C
:100840001001251D00EA010C2ECDD4E9050E41EA68
:100850000C01114319432943D4E90778084340EABE
:100860000E01606A3943042841EA080103D1D4E942
:100870000B231143194331607169042821F00701EA
:1008800041EA00050CD1D4E90A1045EA010538B166
:100890002046FFF775FD18B10121402201200BE031
:1008A00020467561FFF74EFDE16D3F2202FA01F12E
:1008B0008160002201210020626584F83510BDE8C6
:1008C000F08100002DE9F04F83B000F13E4202F1CB
:1008D000FF724FEAB22241F200070192C4F202070E
:1008E00007224FF0010E00254FF0000A4FF00008DC
:1008F000B84208BF042200920AE000BF08F10108D4
:100900000AF1040AB8F1100F05F1020500F0A28007
:100910000C680EFA08FB14EA0B09EFD04C6804F0DF
:10092000030CACF1010EBEF1010F11D80322876850
:1009300002FA05F6CA68B743AA403A4382604268A1
:10094000C4F3001722EA0B0207FA08F73A434260A1
:10095000BCF1030F1CD0C26803238E6803FA05F7AD
:10096000BA4306FA05F73A43BCF1020FC2600FD151
:100970006FF0030202EA580202440AF01C060F2339
:10098000176A03FA06F40B69A743B3403B431362AB
:10099000026803234F68AB409A4307F00303AB4060
:1009A0001A4317F4403F4FF0010E0260A6D0002218
:1009B00043F644030292C4F202031A6843F6004469
:1009C00042F480421A601A68C4F2010402F48042C0
:1009D0000292029A28F003024FF6084B2244CFF607
:1009E000FF7B52F80B300AF00C070F26BE4023EABB
:1009F000060C019B009E042B38BF1E4606FA07F723
:100A000047EA0C0342F80B3022684B6842EA0907B8
:100A1000DE0358BF22EA0907276062689E0342EAA4
:100A2000090758BF22EA09076760A268DE0242EAA6
:100A3000090758BF22EA0907A76043F60C47C4F22A
:100A400001073A689B0242EA090358BF22EA0903F8
:100A50003B6053E703B0BDE8F08F0000002A08BFF9
:100A6000090481617047000040F63820C2F200009E
:100A7000006870477047000070470000F0B581B013
:100A8000036804465A68C56A90F83E1090F83DC065
:100A9000402901D010290BD19F695869C60728D178
:100AA000B5F12A4F02D0B5F52A0F24D101B0F0BD1F
:100AB000206C00280CBF99690021586912F4007E4F
:100AC00018BF10F002053CD1BEF1000F18BF10F0A6
:100AD00010013FD14CF00801292957D1510560D5AB
:100AE00000F0840180295CD1204601F033FD01B083
:100AF000F0BD96051DD412F4007E18BF10F0080555
:100B00002DD1BEF1000F18BF10F002052CD15B688B
:100B10007D0703F400632CD4002BC7D1510558D5B1
:100B200000F04401402954D1204601F059FA01B0A7
:100B3000F0BD204601F0B8F8204601F02FFC01B0CE
:100B4000F0BD206C0028204618BF996901F026FDF1
:100B500001B0F0BD204601F04BFD01B0F0BD2046D4
:100B600001F042FB01B0F0BD204601F051FB01B0A5
:100B7000F0BD002B9AD1520537D500F08402802AAF
:100B800033D1204601F0D4FA01B0F0BD510514D59F
:100B900000F04401402910D1204601F0A7FC01B02B
:100BA000F0BDBEF1000F18BF10F004003FF47EAF9F
:100BB000204601F0C1FC01B0F0BDBEF1000F18BF2E
:100BC00010F004003FF472AF204601F07FFC01B04A
:100BD000F0BDBEF1000F18BF10F004003FF466AF87
:100BE000204601F089F901B0F0BDBEF1000F18BF39
:100BF00010F004003FF45AAFBCF1210F04D120469D
:100C000001F052FA01B0F0BD40297FF44FAF204609
:100C100001F008FC01B0F0BD7047000070B5B0B342
:100C2000044690F83D0028B9002084F83C00204696
:100C300000F0C6F8242084F83D002068016821F007
:100C400001010160016841F400410160016821F483
:100C50000041016000F056FA48F28041C0F21E01E6
:100C600040F60012666888424FF00001C0F23D0273
:100C700048F2A16C4FF0000338BF01219042C0F24E
:100C8000010C38BF0123664538BF0B460BB101206C
:100C900070BD4DF68361C4F21B31A0FB01122168C7
:100CA000930C4D68664525F03F0545EA92424A603F
:100CB0000A6A22F03F0C09D34FF496725A4344F665
:100CC000D353C1F26203A2FB03239B095A1C42EADD
:100CD0000C020A6248F2A063CA69C0F201039E4294
:100CE0004CF6FF7322EA030C0AD801387200B0FBFD
:100CF000F2F001306FF31F30042898BF04202BE07E
:100D0000A368A0F1010E9BB119207043BEFBF0F067
:100D10000422013062F31F30000512D09BB119206C
:100D20007043BEFBF0F00422013062F31F3011E08B
:100D300006EB4600BEFBF0F001306FF31F300005FC
:100D4000ECD1012008E006EB4600BEFBF0F00130DC
:100D50006FF31F3040F4004040EA0C00C86108689F
:100D6000D4E9072320F0C0001043184308608868C6
:100D700048F2FF3204F10C0690434CCE1843104366
:100D8000A5698860C86820F0FF0030432843C86028
:100D9000086840F00100086000202021206484F8E9
:100DA0003D10206384F83E0070BD000070470000D5
:100DB0007047000070470000704700007047000057
:100DC00070B586B0002604460596CDE9036645F267
:100DD00000402168C4F2000081420296019601D0D1
:100DE00006B070BD43F630050096C4F202052968CE
:100DF00000F5D83041F002012960296801F00201B4
:100E000000910099C02101911221029101210391C9
:100E1000032104910421059101A9FFF753FD0096D8
:100E200028694FF0007140F400102861286940F6ED
:100E3000440500F400100090009846F2A000C2F2B1
:100E40000005C4F2020040224FF4806385E84700A9
:100E50002846C5E90436C5E90666C5E90866FFF710
:100E6000C9FC002818BFFFF791FB1F2009210022B1
:100E70006563AC6300F07CF81F2000F075F806B0E5
:100E800070BD0000704700007047000040F2210074
:100E900040F63821C2F20000C2F2000100780A6870
:100EA000104408607047000080B543F60040C4F26B
:100EB0000200016841F400710160016841F4806141
:100EC0000160016841F480710160032000F060F866
:100ED000002000F005F800F02BF8002080BD000095
:100EE000B0B540F22102C2F2000240F21C011278B9
:100EF000C2F200014FF47A730968B3FBF2F20446C0
:100F0000B1FBF2F1084600F0F5FC0F2C4FF00105A3
:100F10000CD858B94FF0FF3021460022002500F0D0
:100F200027F840F22400C2F2000004602846B0BD59
:100F300082B0002043F640010190C4F202014A68E9
:100F400042F480424A604A6802F480420192019A67
:100F50000090086840F080500860086800F08050F9
:100F60000090009802B0704780B502F00DFA80BD85
:100F700070B514460D46064602F016FA294622467A
:100F800001F050FD0146304602F016FA70BD000037
:100F900080B502F023FA80BD2DE9F041002800F071
:100FA0008B8043F60808C4F202080446D8F8F80318
:100FB0000D4600F00700884207D288F8F853D8F8A9
:100FC000F80300F00700A84276D12068810717D502
:100FD000410705D5D8F8001041F4E051C8F80010D9
:100FE000010705D5D8F8001041F46041C8F8001099
:100FF000D8F80010A26821F0F0011143C8F80010E1
:10100000C0073FD1D8F8F80300F00700A84207D97D
:1010100088F8F853D8F8F80300F00700A8424BD13D
:101020002068410707D5D8F80010E26821F4E051A4
:101030001143C8F80010000708D5D8F8000021694E
:1010400020F4604040EAC100C8F8000000F07EF8DB
:10105000D8F8001043F22062C1F30311C0F6000279
:10106000515C40F21C0220FA01F140F22400C2F26D
:1010700000000068C2F200021160FFF731FF00209B
:10108000BDE8F0816068811E022907D258F8081C6B
:1010900089015CBF0120BDE8F08110E0012807D183
:1010A00058F8081C89035CBF0120BDE8F08106E008
:1010B00058F8081C890702D40120BDE8F081D8F84F
:1010C000001021F003010843C8F80000FFF7CCFC32
:1010D000064641F2883700BFD8F80000616800F08A
:1010E0000C00B0EB810F8DD0FFF7BEFC801BB84227
:1010F000F2D90320BDE8F08140F21C00C2F20000EA
:101100000068704780B5FFF7F7FF43F60801C4F2A7
:101110000201096843F23062C1F38221C0F6000285
:10112000515CC84080BD000080B5FFF7E5FF43F685
:101130000801C4F20201096843F23062C1F342318E
:10114000C0F60002515CC84080BD000010B543F6F7
:101150000404C4F20204606800F00C0008280AD0FD
:10116000042819BF42F20040C0F2F40047F64000E4
:10117000C0F27D1010BD206821682368490247F63F
:101180004001C0F27D1100F03F02C3F388105CBF44
:1011900042F20041C0F2F401A1FB00010023FFF77D
:1011A00015F821680222C1F3014102EB4101B0FBB5
:1011B000F1F010BD2DE9F04182B0002800F0A180CF
:1011C0000446007843F60006C007C4F2020643D086
:1011D000B06800F00C00042805D1306880033BD5CE
:1011E0006068C8BB8DE0B06800F00C00082802D130
:1011F00070684002F1D46568B5F5A02F0AD0B5F546
:10120000803F0BD0306820F480303060306820F4AC
:10121000802006E0306840F480203060306840F480
:1012200080303060FFF720FC002D054611D000BF54
:101230003068800310D4FFF717FC401B6428F7D9EF
:1012400020E100BFFFF710FC401B64284FF00300B3
:1012500054D830688003F5D4207880071AD5B06858
:1012600010F00C0F09D0B06800F00C00082840F016
:1012700088807068400200F184803068800702D561
:10128000E06801283DD13068216920F0F80040EA8B
:10129000C10030602078000737D4207840074AD456
:1012A000A56955B3B06800F00C00082840F09C8098
:1012B000012D26D07068E16900F480028A4220D1B5
:1012C000216A00F03F028A421BD147F6C071626A70
:1012D0000140B1EB821F14D1A16A4FF6FF73C9031D
:1012E000994300F44032A1F580318A4209D1E16A84
:1012F00000F07060B0EB016F03D1002002B0BDE8D8
:10130000F081012002B0BDE8F0816069002840F260
:101310000000C4F2472056D00121C0F8801EFFF71C
:10132000A3FB0546706F8007B7D4FFF79DFB401BFA
:101330000228F7D9A6E0306C10F080580AD10020BE
:101340000190306C40F080503064306C00F0805080
:101350000190019847F20007C4F200073868C00501
:1013600024D4386840F480703860FFF77DFB054670
:101370003868C0051AD4FFF777FB401B0228F7D95D
:1013800080E0E068002851D00020C4F2472001210D
:101390000160FFF769FB0546306880073FF573AFD2
:1013A000FFF762FB401B0228F6D96BE0A568052D0C
:1013B00050D0012D52D0306F20F001003067306FD7
:1013C00020F004004DE00021C0F8801EFFF74CFB28
:1013D000054600BF706F80077FF55FAFFFF744FBE6
:1013E000401B0228F6D94DE00027C4F24727002011
:1013F0003866FFF739FB022D05460BD130688001B6
:1014000058D5FFF731FB401B02284FF00300F5D9F8
:1014100074E700BF306880017FF56FAFFFF724FBF2
:10142000401B02284FF00300F4D967E70020C4F204
:10143000472000210160FFF717FB05463068800751
:101440007FF528AFFFF710FB401B02284FF0030089
:10145000F4D953E7306F40F004003067306F40F04C
:1014600001003067FFF700FB002D054641F2883789
:1014700014D000BF306F800713D4FFF7F5FA401B7C
:10148000B842F7D9032002B0BDE8F081FFF7ECFACB
:10149000401BB8424FF003003FF630AF306F80077B
:1014A000F4D4B8F1000F7FF4FBAE306C20F0805024
:1014B0003064F5E604F11C052FCD084340EA8210A4
:1014C000D9034FF6FF729143A1F5803140EA0560E0
:1014D0000843706001203866FFF7C6FA044600BF73
:1014E000306880013FF509AFFFF7BEFA001B022804
:1014F0004FF00300F4D901E770470000B0B582B0A7
:1015000004460068416882684B0602F0400305D536
:1015100012F0010502D00BB9216C05E00D0607D5CC
:1015200012F0020504D0616C2046884702B0B0BDBD
:101530008D0664D512F4B07561D0BBB194F851300A
:10154000032B08D100210191C168019180680190AD
:10155000019802B0B0BD636D43F0040363650023DE
:101560000193C368019383680193019B12F02003E8
:1015700002F480720CD0636D43F0010363650023B5
:10158000019383680193036823F040030360019B88
:1015900042B1626D42F008026265002201928268E7
:1015A0000192019A626D52B34268890722F0E0020B
:1015B00042604FF0010284F851201DD0416842F68C
:1015C000215521F003014160E06CC0F6000538B1FF
:1015D0000565FFF733F818B1606D40F040006065B5
:1015E000A06C60B10565FFF729F840B1606D40F06F
:1015F0004000606502B0B0BD2046FFF77DFF02B03D
:10160000B0BD000070B538B10446406A30B100206A
:10161000206104F1140007E0012070BD6068B0F59E
:10162000827F03D004F11C00002101600026A66225
:1016300094F8510020B9204684F8506000F03CF83E
:10164000022084F8510094E80F0001F482710568CB
:1016500002F4044225F040050560114403F40062E1
:101660002369114403F002026369114403F001028B
:10167000A369E569114403F40072114405F03802CE
:10168000256A114405F08002A56A114305F4005251
:1016900011430160626A042101EA134102F0100261
:1016A00011444160C16921F40061C1610120666596
:1016B00084F85100304670BD70B586B000260446EF
:1016C0000596CDE9036643F200002168C4F20100EB
:1016D00081420296019601D006B070BD43F63001FA
:1016E0000096C4F202014A6900F5504042F480526B
:1016F0004A614A6902F480520092009A00960A6890
:1017000042F001020A60096801F0010100910099AC
:10171000A02101910221CDE90216032104910521A6
:10172000059101A9FFF7CEF840F6A40546F258400E
:10173000C2F20005C4F202004FF0C06140224FF433
:10174000806385E847002846C5E90436C5E9066692
:10175000C5E90866FFF74EF8002818BFFEF716FF28
:10176000232000210022A564AC63FFF701FC2320A5
:10177000FFF7FAFB06B070BD2DE9F04381B00446D7
:1017800090F85000012803D1022001B0BDE8F08399
:101790004FF001091D4616460F4684F85090FFF79A
:1017A00063F994F8511001295DD18046002F4FF064
:1017B000010018BF002E00F09580032084F851002E
:1017C000002060652763A686E686A063A087E08781
:1017D000A168C4E91000B1F5004F08D12068016884
:1017E00021F040010160016841F4804101602068FE
:1017F0000168490603D4016841F040010160616855
:10180000731EE268B1FA81F1B3FA83F349095B0907
:10181000B2F5006F41EA030127D139B1216B098884
:10182000C160B81C2063E08E0138E086E08E00289D
:1018300041D06E1C0AE000BF216B31F8022BC26060
:101840002163E08E0138E086E08EA0B320688168D5
:101850008907F1D4FFF708F9002EF5D0A0EB0800B6
:10186000A842F1D325E002203CE039B13978017378
:10187000206B01302063E08E0138E086E08ED0B12D
:101880006E1C0AE0216B09780173206B0130206324
:10189000E08E0138E086E08E68B1206881688907B3
:1018A000F0D4FFF7E1F8002EF5D0A0EB0800A84235
:1018B000F1D3032016E020462946424601F038FACB
:1018C00000281CBF20206065A06838B90020009067
:1018D0002068C1680091806800900098606D0028C1
:1018E00018BF0120002184F8519084F8501001B0F5
:1018F000BDE8F08380B501F029FB80BD7047000092
:1019000070470000B0B582B0036804461868D96813
:101910005A6900F02F05202D01F0200505D125B1D1
:10192000204601F0C7FB02B0B0BD5FEA007C1EBFDD
:1019300002F0010E01F4907212EB0E0248D1226BFC
:101940000840C1063BD5012A39D100200190186812
:1019500001905868019001985869400640D4A08DC4
:10196000E18DE28D002A1CBF401A5FEA004101D1DF
:1019700002B0B0BD216851E8031F226821F49071C4
:1019800042E80313002BF5D1216851E8051F2268B6
:1019900021F0010142E80513002BF5D1202184F844
:1019A0003E100021216300BF216851E8031F226817
:1019B00021F0100142E80313002BF5D152E001069B
:1019C00056D44006D4D5204601F068FB02B0B0BD25
:1019D000C20718BF11F480724FD1420753D459E0A7
:1019E000A06B016849688AB2002AC1D0A38D9A42CF
:1019F000BED2E185C069B0F5807F30D0206850E864
:101A0000030F216820F4807041E80302002AF5D119
:101A1000206850E8050F216820F0010041E8050228
:101A2000002AF5D1206850E8050F216820F0400019
:101A300041E80502002AF5D1202084F83E0000206C
:101A4000206300BF206850E8030F216820F01000D9
:101A500041E80302002AF5D1A06BFEF7AFFDA08D8F
:101A6000E18D401A81B22046FFF748FF02B0B0BDB9
:101A7000204601F0EFFB02B0B0BD226C42F0010243
:101A80002264420706D5BEF1000F03D0226C42F05B
:101A900002022264820706D5BEF1000F03D0226C39
:101AA00042F004022264BCF1000F06D55EEA050292
:101AB00003D0226C42F008022264226C002A3FF418
:101AC00057AF0840800602D5204601F0F3FA20689F
:101AD0004069216C00F0400001F00801401827D057
:101AE000204601F0B3FA2068406940061BD500BFCC
:101AF000206850E8050F216820F0400041E8050209
:101B0000002AF5D1A06B70B143F23D01C0F600018F
:101B10000165FEF793FD00283FF42AAFA06B016D2D
:101B2000884702B0B0BD2046FFF7EAFE02B0B0BD64
:101B30002046FFF7E5FE0020206402B0B0BD0000A3
:101B4000002804BF0120704710B5044690F83D00FE
:101B500028B9002084F83C00204600F021F8242019
:101B600084F83D002068C16821F40051C16020461E
:101B700001F002FB2068016921F490410161416993
:101B800021F02A014161C16841F40051C160002087
:101B90002021206484F83D1084F83E1010BD000020
:101BA00010B586B00021CDE90411CDE9021100681D
:101BB00041F20042C4F201029042019132D044F25B
:101BC0000041C4F2000188425DD1002043F630019B
:101BD0000090C4F202010A6942F400320A610A6903
:101BE00002F400320092009A00900A6842F001026A
:101BF0000A60096801F00101009100990C2101912E
:101C00000221CDE902100320049007200590002056
:101C1000C4F2020001A9FEF755FE2620052100228C
:101C200026242BE043F630000091C4F20200426902
:101C300042F020024261426902F020020092009AC2
:101C40000091026842F001020260006800F00100A9
:101C5000009000984FF4C05001900220CDE902019D
:101C600003200490082005900020C4F2020001A97E
:101C7000FEF728FE4720072100224724FFF778F9C6
:101C80002046FFF771F906B010BD00007047000054
:101C900070470000FEE7000080B540F60410C2F275
:101CA0000000FEF7EBFE80BDC16AB1F52A0F02D13C
:101CB0000121C1627047C16AB1F12A4F18BF704754
:101CC0000821C1627047000010B582B00021019167
:101CD000806B40F21C01C2F2000190F83DC009681F
:101CE0004BF28952C908C1F2F842A1FB0212110A53
:101CF00023225143019100BF019939B10199013962
:101D00000191016809688905F6D403E0016C41F08E
:101D100020010164446B4FF0000E002C1CBF002119
:101D2000E163816B00291CBF0022CA630268002C9A
:101D3000136823F480631360A0F82AE018BFC4F886
:101D400050E000291CBF00230B65116821F0010140
:101D5000116090F83D1060290AD1202180F83D10D3
:101D6000002180F83E100164FEF784FE02B010BD31
:101D70000CF0280128290DD1116841F001011160F2
:101D8000116841F48061116000210163282180F80D
:101D90003D1005E0202180F83D10002180F83E1024
:101DA000FEF73AFF02B010BD10B5044690F83D00B2
:101DB00094F83E10402901D0102906D1222804D1E0
:101DC00021680A6822F400620A6000F028012829CC
:101DD00005D100202063282084F83D000EE0216812
:101DE0006028496808D011F4006005D1202084F8EB
:101DF0003D00002084F83E000020206320684168F8
:101E000009051AD494F83D10602935D1202184F8B1
:101E10003D10002121644169490605D50069616AC8
:101E20000870606A013060622068016821F0010179
:101E300001602046FEF71EFE3EE0416821F400618D
:101E40004160606B90F83510012922D1A06B41F6FA
:101E5000C941C0F600010165FEF7F0FB60B32068E0
:101E60004169490605D50069616A0870606A0130F8
:101E700060622168A06B16E04169490605D50069DA
:101E8000616A0870606A013060622046FEF7C4FE35
:101E900012E041F6C941C0F600010165FEF7CEFB34
:101EA00050B12168606B0A6822F001020A602021AB
:101EB00084F83D10016D8847206C000704D020682D
:101EC000416821F4E061416094F83D10206C2829BC
:101ED00011D110F0040008BF10BD0020CFF6FF7034
:101EE000E06200202021206384F83D1084F83E0049
:101EF0002046FEF75BFF10BD80B5C16A428D042A03
:101F000007D10168426A4B6823F480634B6009691A
:101F100011E0428D032A16D102680229536823F486
:101F20008063536005D0042903D0116821F48061D7
:101F300011601169426A1170416A01314162418D3B
:101F40000139418580BD428D022A11D101390F2905
:101F500016D8DFE801F00810151015151515151520
:101F600015151515150801680A6822F480620BE042
:101F70000168426ACBE701680A6842F4806203E0C4
:101F800001680A6842F400720A600168426A0969DD
:101F90001170416A02684B1C4362438D013B4385CB
:101FA00012694A70416A026801314162418D01390A
:101FB0004185516821F440715160202180F83D1025
:101FC00090F83E200021402A80F83E1003D10163A2
:101FD000FEF7F2FE80BD12210163FEF7E9FE80BD2F
:101FE00010B5044690F83D00222836D1608D0428B3
:101FF00012D32068616A00690870606A013060620B
:10200000608D01386085608D032826D12068416885
:1020100021F48061416010BDE16A01281DD80229C8
:1020200008BF10BD204600F095FB2168B0B148689C
:1020300020F4E06048600869616A0870606A0130F5
:102040006062608D01386085202084F83D000020AA
:1020500084F83E002046FEF7DFFD10BD086820F43E
:1020600080600860486820F4E06048600869616A40
:102070000870606A01306062608D013860852020E0
:1020800084F83D0094F83E100020402984F83E007A
:1020900004D120632046FEF78FFE10BD122020637E
:1020A0002046FEF785FE10BD80B5C16A90F83D2040
:1020B000212A18BF80BD428D4AB1416A026811F8D9
:1020C000013B13614162418D0139418580BD11F5AC
:1020D000803F18BF082919D101684A6822F4E062DC
:1020E0004A600A6842F400720A60002120220163FB
:1020F00080F83D2090F83E2080F83E10402A02D122
:10210000FEF75CFE80BDFEF755FE80BD2029E3D0C2
:1021100001684A6822F4E0624A60112101630021EB
:1021200080F83E10202180F83D10FEF743FE80BD70
:1021300080B590F83D3090F83EC0C26A212B1DD189
:10214000018DD9B912F5803F18BF082A2AD101683C
:102150004A6822F4E0624A600A6842F400720A6047
:1021600000212022016380F83D2090F83E2080F875
:102170003E10402A13D1FEF721FE80BD212B05D051
:10218000222B08BFBCF1400F00D080BD418DD9B1DA
:1021900090F83E1040291DD100F044F980BDFEF7B3
:1021A00009FE80BD202AD2D001684A6822F4E0628C
:1021B0004A6011210163002180F83E10202180F83F
:1021C0003D10FEF7F7FD80BD0068416821F4806195
:1021D000416080BD416A026811F8013B13614162B0
:1021E000418D0139418580BD0168426B436CDBB292
:1021F0000B610AB1D26B2AB9806B38B1C06B002871
:1022000008BF7047486840F40060486070470000AD
:1022100081B090F83E30D0F82CC0026B90F83D10A1
:10222000222919D1402B016D08BF002914D0016D5E
:10223000E1B90169B1F5404F18D100210091016861
:102240004A6900928A690092009A0A6842F4807290
:102250000A60016D013191E000210091006841693F
:10226000009180690090009801B07047418D81B164
:10227000418D01291AD1BCF1200F18BFBCF1080F04
:102280002CD101680A6822F480620A600022009260
:1022900002E00021009101684A6900928A69009277
:1022A000009A0A6842F400720A6066E0418D0229D1
:1022B0000ED1BCF1100F38D80121142201FA0CF113
:1022C000C0F20102114230D002684FF4806333E063
:1022D0000268116841F48061116031E01CF5803FB3
:1022E0000ED101680A6822F480620A604A68120509
:1022F000CCD50A6822F480620A600022009248E08D
:10230000BCF1010F01D0122ABBD0BCF1100F38D89C
:102310000121142201FA0CF1C0F20102114230D065
:1023200001680A6842F480622FE002684FF400639B
:10233000116821F48061116011681943116002680D
:102340005168090512D5ACF101031F2B07D80121F3
:10235000994048F28103C8F20003194202D11CF5EA
:10236000803F03D1516841F48051516000210091B8
:10237000516900919169009100990021016501B0B6
:10238000704701680A6822F480620A6000210091A7
:1023900001684A6900928969EDE7000090F83E10F3
:1023A00040290AD1016D426C002902F0FE012ED0B5
:1023B000006841F00101016170470169B1F5804F8A
:1023C00017D190F83D10426C212902F0FE0218BF8F
:1023D0000132416B03681A6109B1C96B19B9816B8C
:1023E000A1B1C96B91B10068416841F400614160DD
:1023F0007047016D71B1016D012918BF7047016807
:10240000406C062202EAD010F13008617047006883
:10241000016170470168406C062202EAD010F0307A
:102420000861704780B590F83D10026D3AB1026DB9
:10243000012A0FD10168826CD2B20A611AE0C26C23
:10244000816C012A12D10268C9B21161016D023199
:10245000016580BD026D022A18BF80BD22290DD101
:1024600001680A6842F480720A6003E00268C1F3FE
:1024700007211161016D0131016580BD428D212966
:102480000AD14AB1416A026811F8013B1361416205
:10249000418D0139418580BD2129428D08BF002A27
:1024A00000D080BD01684A6822F4E0624A600A6890
:1024B00042F400720A6000212022016380F83D206E
:1024C00080F83E10FEF77AFC80BD0000418D0029A7
:1024D00008BF70470168426A09691170416A013199
:1024E0004162418D013941857047000080B590F807
:1024F0003D10428D002A08BF80BD0268436A126900
:102500002A291A70426A02F101024262428DA2F146
:1025100001024285428D08BF002A00D080BD0168BB
:102520004A6822F480624A6022210163282180F8EF
:102530003D10FEF7A7FC80BD418D002908BF704704
:10254000416A026811F8013B13614162418D013912
:102550004185704780B590F83DC0418D002908BF86
:1025600080BD436A016813F8012BBCF1290F0A6191
:102570004362428DA2F101024285438D08BF002BC8
:1025800000D080BD4A6822F480624A602121016344
:10259000282180F83D10FEF777FC80BD80B582B021
:1025A00090F83D2002F02802282A15D102685368CD
:1025B00023F480635360012222EA910309064FF05D
:1025C000180158BF0C21425A002180F83C101946CE
:1025D000FEF752FA02B080BD0021019102685369F2
:1025E000019392690192019A80F83C1002B080BD7B
:1025F000B0B582B090F83D5001680446486820F4B8
:10260000E06048600020019048690190086840F04F
:10261000010008600198086820F48060086048683C
:1026200000053ED545F008002A281CD1A06B0268A1
:1026300052686285628D1AB1226C42F004022264F3
:102640004A6822F400624A60FEF70AF8012828D09E
:10265000A06B41F6C941C0F600010165FDF7EEFF30
:10266000F8B1A06B1BE0606B026852686285628DF6
:102670001AB1226C42F0040222644A6822F4006219
:102680004A60FDF7EDFF01280BD0606B41F6C941B0
:10269000C0F600010165FDF7D1FF10B1606B016D5F
:1026A0008847608DF8B120684169490708D50069FD
:1026B000616A0870606A01306062608D013860850F
:1026C00020684169490608D50069616A0870606A36
:1026D00001306062608D01386085608D18B1206CBA
:1026E00040F004002064206C20B12046FFF75CFB22
:1026F00002B0B0BD2A2D07D100202063282084F825
:102700003D002046FEF7BEFB94F83D0028280FD17F
:102710000020CFF6FF70E06200202021206384F8C3
:102720003D1084F83E002046FEF740FB02B0B0BDED
:10273000222D206B18BF222809D1002020212063E0
:1027400084F83D1084F83E002046FEF79BFB02B063
:10275000B0BD000081B00021009140F21C01C2F226
:10276000000109684BF28952C908C1F2F842A1FB85
:102770000212110A01EB8101009100BF0099013999
:102780000091009931B1016809688905F6D40020EB
:1027900001B07047016C41F020010164012001B0DB
:1027A0007047000080B5FDF7EBFE80BD80B582B0BC
:1027B000002043F630010190C4F202010A6842F49D
:1027C00000120A600A6802F400120192019A009055
:1027D0000868002240F4800008600868002100F4C6
:1027E0008000009000981120FEF7C2FB1120FEF738
:1027F000BBFB3B2000210022FEF7BAFB3B20FEF78B
:10280000B3FB02B080BD00002DE9F04387B0002487
:1028100043F630000694CDE90444CDE90244019426
:10282000C4F20200016840F2004841F00401016076
:102830000168C4F2020801F00401019101990194B8
:10284000016808F5806741F080010160016801229C
:1028500001F0800101910199019401684FF4005940
:1028600041F0010101600168012601F001010191BF
:1028700001990194016841F00201016000684FF480
:10288000005100F00200019001983846FEF7E6F88A
:10289000A8F58065284650210022FEF7DFF8404663
:1028A00041F203410122FEF7D9F8404604210022FB
:1028B000FEF7D4F8CDE902960DF1080938464946ED
:1028C000CDE90464FDF7FEFF1020CDE902060327E1
:1028D0002846494604940597FDF7F4FF4020CDE9CA
:1028E000020628464946CDE90467FDF7EBFF40F2B2
:1028F0000740CDE9020640464946CDE90467FDF7A9
:10290000E1FF4FF48050CDE9020640464946CDE94B
:102910000464FDF7D7FF07B0BDE8F08380B540F64B
:10292000041045F20041C2F20000C4F2000141F679
:10293000802200234FF4804CC0F2060280E80E0093
:10294000C0E9033CC0E90533C0E90733FEF766F987
:10295000002818BFFDF71AFE80BD000080B540F6C4
:10296000581043F20001C2F20000C4F201014FF41A
:10297000827200234FF4007C80E80E000A21C0E937
:102980000333C0E9053CC361C0E90833C0E90A313B
:10299000FEF738FE002818BFFDF7F8FD80BD0000E7
:1029A000B0B540F6B01044F20041C2F20000C4F2EB
:1029B000000148F2A0620C240025C0F201024FF48D
:1029C00080534FF4005C4FF4806E80E80E50C0E9F5
:1029D0000545C561FFF7B4F8002818BFFDF7D6FD1F
:1029E000B0BD000080B540F6F41041F20041C2F2E3
:1029F0000000C4F2010100234FF00C0C4FF4E1324F
:102A000080E80E00C0E90333C0E905C3C361FFF7E6
:102A100097F8002818BFFDF7B9FD80BDFEE700005C
:102A2000FEE7000000F0070080F00703042B28BF3A
:102A300004234FF0FF3C03380CFA03F338BF0020A7
:102A4000994381400CFA00F022EA000008437047E5
:102A500010B540F23004C2F2000420464FF4806109
:102A6000FDF7ECFB20464FF4806100F075FC10BDD3
:102A700080B54FF4806100F06FFC80BD80B540F2FE
:102A80000000C2F200001C2100F04EFCFFF7E0FF46
:102A900080BD00002DE9F04F81B007284ED88B464D
:102AA00070294BD8054610781446002846D043F2CA
:102AB000386AC0F6000A0AF103002323009002E0FE
:102AC00014F8020FD0B3009E002704E00137102F46
:102AD00006F12306F4D007FB03F01AF80000217872
:102AE0008842F3D107FB03A0617840788842EDD19A
:102AF0005FFA8BF84FF0FF3101F101090F293144E2
:102B000008BF013509F00F034A78E8B203EB08016A
:102B100000F0EEFBB9F11F0F4946EDD10BF1100BA0
:102B20005FFA8BF070284FF0FF3088BF012005441A
:102B30004FF0230388BF4FF0000BC7E701B0BDE89B
:102B4000F08F000083B02DE9F04382B0054609A85C
:102B500046F267680EC009A84FF00009C6F2666821
:102B600001902878252816D8DFE800F09D15151566
:102B70001515151515151A15151415151515151501
:102B800015151515151515151515151515151515F5
:102B9000151C00BF0D2000F087FC09F1010913E0AE
:102BA0000A20F8E715F8010F633815280CD8DFE87C
:102BB00000F00D120B0B0B0B0B0B0B0B0B0B0B0B82
:102BC0000B0B3C0B0B0B0B490135CAE70198011DA0
:102BD00001910078DFE70198011D0191076800204D
:102BE00057B1394651FB08F29310093103EBD27209
:102BF000013012291146F5D810F0FF0F59FA80F96B
:102C0000E2D0C4B2661E0A20314600F041FCB7FB98
:102C1000F0F101FB107701F13000C0B200F044FC8C
:102C2000E0B201283446EDD1CEE70198011D0191B3
:102C30000668304600F06CFC3046FDF716FB814418
:102C400001358EE70198011D01910768002057B1F9
:102C5000394600BFCA1701EB12720F311211013051
:102C60001E291146F6D810F0FF0F59FA80F9ABD0A3
:102C7000C6B200BF741E1020214600F009FCB7FB4D
:102C8000F0F101FB107701F0FE000A284FF0570029
:102C900038BF30200844C0B200F006FCF0B2012872
:102CA0002646E7D190E740F63800C2F200000168FE
:102CB0003729A4BF0021016000F006FB484602B09E
:102CC000BDE8F04303B0704740F22C00C2F20000B0
:102CD000016800291CBF013901607047704700007E
:102CE00080B540F65810C2F20000FEF707FC80BD28
:102CF00010B540F21444C4F20204206840F004000D
:102D00002060642000F098FB206820F00400206020
:102D1000642000F091FB206840F00400206010BDAA
:102D200080B5806B0021C187C186FEF7E5FB80BDC1
:102D300010B582B040F21C03C2F200031B6849F6D2
:102D40008174C1F25E64A3FB043C04464FEA5C500C
:102D50004FF47A73584301906068B0F5827F0DD1CB
:102D600013460A462046802100F014F878B1606DC1
:102D700040F020006065032002B010BD019830B122
:102D8000019801380190206880680006F6D4002080
:102D900002B010BD2DE9F04381B01E4690460D46AD
:102DA0008146FDF761FE301A00EB0807FDF75CFE77
:102DB00040F21C01C2F200010968C1F3CB31794332
:102DC0000091D9F8001089682940A94219D1064616
:102DD00008F1010406E000BFD9F80000806828402F
:102DE000A8420ED1002CF7D0FDF73EFE801BB84262
:102DF0000BD200980099002808BF0746481E009093
:102E0000EAE7002001B0BDE8F083D9E9000142689B
:102E1000B1F5827F22F0E00242600BD1D9F80810B0
:102E2000B1F5004F02D0B1F5806F03D1016821F0F8
:102E300040010160D9F82810B1F5005F07D10168A1
:102E400021F400510160016841F40051016001204A
:102E500089F85100002089F85000032001B0BDE836
:102E6000F083000080B5034640F658108AB2C2F2E3
:102E7000000019464FF47A73FEF77EFC80BD000017
:102E80007047000040F63001C2F200010870704740
:102E900080B57F28D8BF3F2900DD80BD40F63103D3
:102EA000C2F2000393F800E001F0070C012303FADB
:102EB0000CFCCB1701EB5371BEF1000F4FEAE1019F
:102EC00004D040F23043C2F2000303E040F230038A
:102ED000C2F2000303EBC113195C18441AB141EAB2
:102EE0000C01017080BD21EA0C01017080BD000061
:102EF0002DE9F04182B00E4611781446002201926D
:102F000009B347000DF10408404621460322FDF7AE
:102F1000A0F93101F8B2C9B24246751CFFF7BAFDFB
:102F2000082F4FF00000B8BF0120062E4FF000011F
:102F3000C8BF012108401CBF0025023714F8030F49
:102F40002E460028E0D102B0BDE8F081B0B50138CE
:102F50000024B4EB106F1CBF0120B0BD4EF2100571
:102F6000CEF2000568604FF0FF300F2100F024FA28
:102F70000720AC6028602046B0BD000080B5FDF79A
:102F800085FFFFF7A1FE80BD70B592B006AC20466C
:102F90003021FDF753F9002543F640000595CDE9B2
:102FA0000355CDE901550095C4F2020001680226DF
:102FB00041F080510160006800F08050009000985E
:102FC00047F200000095C4F20000016866F38F31FB
:102FD0000160006800F440400090009801200690D5
:102FE0004FF4803007904FF480000D9019200E9020
:102FF000A8200C96CDE90F06042011902046FEF77C
:10300000D9F878B90F20CDE901064FF48050039527
:10301000CDE9040501A80221FDF7BEFF002804BF89
:1030200012B070BDFDF7B2FA4EF68850CEF2000035
:10303000016841F4700101607047000080B5806B49
:103040000021C185C184FEF75BFC80BD016851E8A9
:10305000031F026821F4907142E80313002BF5D19D
:10306000016851E8051F026821F0010142E80513DB
:10307000002BF5D1016B01290AD100BF016851E88D
:10308000031F026821F0100142E80313002BF5D161
:10309000202180F83E1000210163704780B501684F
:1030A000CA6822F04002CA60202180F83D10FEF775
:1030B000EFFD80BD80B582B090F83E1022291ED170
:1030C0008268B2F5805F02D10169002948D0816A27
:1030D000B2F5805F07D00AB9026922B1026852686E
:1030E00002F07F0201E0026852680A700121826AE0
:1030F00011448162C18D01390A04C18501D002B039
:1031000080BD0168CA6822F02002CA60CA6822F441
:103110008072CA604A6922F001024A61202180F867
:103120003E10016B012923D100210163016851E8A0
:10313000031F026821F0100142E80313002BF5D1B0
:1031400001680A68D20606D5002201920A68019237
:10315000496801910199818DFEF7D0FB02B080BDD5
:103160000168826A49686FF35F2111800221BEE71E
:10317000FEF78CFD02B080BD10B504460068D4E9AE
:1031800002C22369016921F440511143016162695E
:1031900043EA0C01E3691143C268194349F20C6325
:1031A0009A431143C1604169A26921F4407141F21F
:1031B0000043114340F48062C4F201039A4241612A
:1031C00002D1FDF7B1FF01E0FDF79CFFE169636803
:1031D0001922B1F5004FA0FB02011CD15A00DB0FF0
:1031E000FCF7F4FF48F21F51C5F2EB11A0FB0123DD
:1031F0005A096FF0630302FB0300322303EBC000A4
:10320000A0FB01014FF4F87000EA111000EB02106E
:10321000C1F342111AE09A009B0FFCF7D7FF48F266
:103220001F51C5F2EB11A0FB01235A096FF0630394
:1032300002FB0300322303EB0010A0FB0101F0208E
:1032400000EA511000EB0210C1F343112268084359
:10325000906010BD90F83D10212923D18168B1F50F
:10326000805F01D1016931B1016A02684B1C0362C0
:103270000978516007E0016A036831F8022B6FF3A7
:103280005F225A600162C18C01390A04C18418BFEF
:1032900070470068C16821F08001C160C16841F0D9
:1032A0004001C1607047000080B540F6B010C2F226
:1032B0000000FEF727FB80BD80B540F6F410C2F297
:1032C0000000FEF71FFB80BD80B500F0D9F800F0CC
:1032D00009F880BD80B540F23000C2F20000FFF76F
:1032E000C7FB80BD80B5FFF7F5FF80BDFEE700009E
:1032F00070B514460D46064600F0BCF80028FBD118
:1033000040F63100C2F20000007840F2300240F294
:103310003041C2F20002C2F20001002818BF0A4682
:1033200002EBC610445570BD10B540F21444C4F20F
:103330000204226822F480622260226842F48052F1
:103340002260FFF78FFD206820F480502060206805
:1033500040F48060206010BD10B540F21444C4F207
:103360000204226842F480622260226842F48052A1
:103370002260FFF777FD206820F4805020602068ED
:1033800040F48060206010BD002848BF704700F006
:103390001F01012202FA01F14EF200124009CEF2A1
:1033A000000242F8201070474EF60C50CEF200009A
:1033B0000068C0F3022070474EF6145300F00F026D
:1033C000CEF2000309011A4400F16043B0F1FF3F5F
:1033D000C8BF03F564421170704700004EF60C51EF
:1033E000CEF200010A684FF6FF031A4060F30A228A
:1033F00042F0806040F0FD700860704740F21C00B1
:10340000C2F20000006844F6D351C1F26201A0FB91
:1034100001124DF68361C4F21B31A0FB010190093A
:1034200040F63C02C2F200021060880C40F64001F7
:10343000C2F200010880704780B54EF2180140F6D4
:103440003C02CEF20001C2F2000251F804CC126834
:10345000002302FB00FE08680A689042FCD0034487
:103460009B1A904298BF63447345104628BF80BDA5
:10347000F2E7000040F22800C2F200000078704736
:1034800040F22800C2F200000121017070470000E4
:10349000002904BF0120704702460120013902FBC8
:1034A00000F0FBD17047000070B50446FDF77AF8D4
:1034B0000D2C2CD00A2C0DD140F63800C2F20000A1
:1034C00001680831016040F63400C2F200000021BA
:1034D000016070BD05460120FFF7D4FC40F63406BC
:1034E00040F63801C2F20006C2F2000130680968F5
:1034F0002246FCF773FF2846FFF7C4FC3068811DA5
:1035000075283160B8BF70BD0A20FFF7CDFF70BDD0
:1035100010B50178002908BF10BD441EC8B2FFF7DE
:10352000C3FFA17801340029F8D110BDFDF7BCFC20
:10353000FFF72AFDFFF768F9FFF738F9FFF7EEF913
:10354000FFF72EFAFFF74EFAFFF708FAFFF756FFDC
:10355000FFF728F9C820FCF73DFF15A20020002145
:10356000FFF7C6FC16A201200421FFF7C1FC0020D2
:10357000FFF788FC15A206203021FCF7C1FFFFF7FA
:10358000A3FE15A44FF47A70FCF724FFFCF7A8FE05
:10359000002500BF204629462A462B46FFF7D2FACF
:1035A0000720FCF717FF0135B5F5807FF2D1E9E779
:1035B000E4B880E58FAAE7A88BE5BA8FE7BE8A005A
:1035C000E6B182E68993E8B58F000000626C616322
:1035D0006B736865657000006E756D3A25642063D5
:1035E00068613A2563206865783A25780D0A0000FD
:1035F0000078704740F22800C2F2000000210170FC
:10360000704702E008C8121F08C1002AFAD17047AB
:103610007047002001E001C1121F002AFBD1704752
:103620000000000000000000010203040607080972
:103630000000000001020304E4B880000000000064
:103640000000000080808080808000000101010176
:103650000101010100000000000000E58FAA000048
:10366000000018F090888888F8180000000000001A
:103670002010080700000000040C38000000E7A834
:103680008B00808040D078040008384828BC0800AF
:103690000000080403221D232024251F15101010EC
:1036A00000E5BA8F00000000F8101050AAAC68289E
:1036B000000000000020100C03020202C27F010182
:1036C00003030000E7BE8A0000000000A0ACA0E8F1
:1036D0009416100000000000040404040404641F95
:1036E00002020202020200EFBC8C00000000000097
:1036F000000000000000000000000000B0700000AA
:1037000000000000000000000000E8A681000000AA
:1037100000C048F828F8A4A46020000000000404B9
:103720004444252B1D0E12226202020200E68993F8
:103730000000004040FEA000404040C0402020006B
:1037400000040412223F00000020603F000000003F
:10375000E8B58F00006020245CD0DE703016103099
:1037600010000000000000804E320E213F4100009A
:10377000000000E6B18200000000404040FC202034
:10378000804408000000000018090502227F03059C
:103790000C1818100000E6B8A9000040081800082E
:1037A000F8A8686874180000000000300E22203E5F
:1037B000221E122E221F120000E6B9BF0000400890
:1037C0000808F8A8A858487C08000000000038063F
:1037D00020202C3D23213F2423202000E4BAAE00EA
:1037E00000000010F0A8AE68788888800000000013
:1037F000000641211B04023F41404061310000E5C9
:10380000BAA600000000F090B0F056D8284800009A
:1038100000000020100C4340402D131E2260404049
:103820004000E9878F00008080807C6C6C6CD4CC79
:1038300044404040000000404043555B7F555443A6
:103840004140000000E7A7A60000008080A878AEF5
:10385000A8E8484000000000000008042A190A7E79
:1038600005142522040404000000000000000000EC
:103870000000000000000000000000F80000000050
:10388000000000333000000000100C06100C060091
:10389000000000000000000040C07840C0784000F8
:1038A000043F04043F040400007088FC083000005A
:1038B000001820FF211E0000F008F000E0180000B2
:1038C00000211C031E211E0000F00888700000006B
:1038D0001E2123241927211010160E0000000000BD
:1038E0000000000000000000000000E018040200DA
:1038F000000000071820400000020418E00000004B
:103900000040201807000000404080F08040400048
:103910000202010F01020200000000F0000000009E
:103920000101011F01010100000000000000000072
:1039300080B07000000000000000000000000000E7
:103940000001010101010101000000000000000070
:10395000003030000000000000000000806018040B
:10396000006018060100000000E010080810E000E8
:10397000000F102020100F00001010F800000000B1
:103980000020203F202000000070080808887000F8
:103990000030282422213000003008888848300078
:1039A0000018202020110E000000C02010F8000098
:1039B00000070424243F240000F808888808080031
:1039C0000019212020110E0000E010888818000046
:1039D000000F112020110E0000380808C838080018
:1039E0000000003F00000000007088080888700098
:1039F000001C222121221C0000E010080810E00019
:103A00000000312222110F00000000C0C0000000A1
:103A100000000030300000000000008000000000C6
:103A200000008060000000000000804020100800BE
:103A30000001020408102000404040404040400087
:103A40000404040404040400000810204080000062
:103A50000020100804020100007048080808F00067
:103A60000000003036010000C030C828E810E00037
:103A70000718272423140B000000C038E0000000C2
:103A8000203C23020227382008F88888887000002C
:103A9000203F202020110E00C03008080808380000
:103AA000071820202010080008F808080810E00077
:103AB000203F202020100F0008F88888E808100018
:103AC000203F20202320180008F88888E8081000EC
:103AD000203F200003000000C03008080838000024
:103AE00007182020221E020008F808000008F80825
:103AF000203F210101213F20000808F808080000AC
:103B00000020203F2020000000000808F8080800DE
:103B1000C08080807F00000008F888C02818080056
:103B2000203F20012638200008F80800000000008F
:103B3000203F20202020300008F8F800F8F8080086
:103B4000203F003F003F200008F830C00008F80880
:103B5000203F200007183F00E01008080810E00090
:103B60000F10202020100F0008F808080808F000A7
:103B7000203F210101010000E01008080810E000CA
:103B80000F18242438504F0008F88888888870005F
:103B9000203F2000030C30200070880808083800FF
:103BA0000038202121221C00180808F808081800F5
:103BB0000000203F2000000008F808000008F80876
:103BC000001F202020201F000878880000C8380827
:103BD000000007380E010000F80800F80008F8009F
:103BE000033C0700073C0300081868808068180839
:103BF00020302C03032C30200838C800C8380800B7
:103C00000000203F2000000010080808C838080005
:103C10002038262120201800000000FE02020200A9
:103C20000000007F40404000000C30C00000000059
:103C3000000000010638C00000020202FE00000081
:103C4000004040407F000000000004020202040027
:103C50000000000000000000000000000000000064
:103C6000808080808080808000020204000000004C
:103C70000000000000000000000080808080000044
:103C80000019242222223F2008F800808000000032
:103C9000003F112020110E000000008080800000F5
:103CA000000E112020201100000000808088F80004
:103CB000000E112020103F20000080808080000036
:103CC000001F222222221300008080F0888888189A
:103CD0000020203F202000000000808080808000A5
:103CE000006B94949493600008F80080808000003A
:103CF000203F210000203F20008098980000000015
:103D00000020203F20200000000000809898000044
:103D100000C08080807F000008F800008080800064
:103D2000203F24022D302000000808F80000000089
:103D30000020203F20200000808080808080800044
:103D4000203F20003F20003F8080008080800000D6
:103D5000203F210000203F20000080808080000064
:103D6000001F202020201F00808000808000000095
:103D700080FFA12020110E000000008080808000C4
:103D8000000E112020A0FF808080800080808000B5
:103D900020203F21200001000000808080808000E2
:103DA0000033242424241900008080E08080000057
:103DB0000000001F202000008080000000808000A4
:103DC000001F202020103F20808080000080808005
:103DD00000010E3008060100808000800080808095
:103DE0000F300C030C300F000080800080808000BA
:103DF0000020312E0E3120008080800000808080E5
:103E000080818E7018060100008080808080800094
:103E10000021302C2221300000000000807C0202B2
:103E200000000000003F404000000000FF000000D4
:103E300000000000FF0000000002027C8000000083
:103E40000040403F0000000000060101020204049F
:103E5000000000000000000000000000003E5B4F7A
:103E60005B3E3E6B4F6B3E1C3E7C3E1C183C7E3CDA
:103E7000181C577D571C1C5E7F5E1C00183C1800E8
:103E8000FFE7C3E7FF0018241800FFE7DBE7FF3078
:103E9000483A060E2629792926407F050507407FE6
:103EA00005253F5A3CE73C5A7F3E1C1C08081C1C59
:103EB0003E7F14227F22145F5F005F5F06097F014F
:103EC0007F006689956A606060606094A2FFA2943A
:103ED00008047E040810207E201008082A1C080808
:103EE0001C2A08081E101010100C1E0C1E0C303856
:103EF0003E3830060E3E0E06000000000000005F57
:103F000000000007000700147F147F14242A7F2A72
:103F10001223130864623649562050000807030034
:103F2000001C2241000041221C002A1C7F1C2A0880
:103F3000083E0808008070300008080808080000E3
:103F400060600020100804023E5149453E00427F57
:103F5000400072494949462141494D331814127FA6
:103F60001027454545393C4A494931412111090746
:103F70003649494936464949291E000014000000C7
:103F80004034000000081422411414141414004199
:103F900022140802015909063E415D594E7C121156
:103FA000127C7F494949363E414141227F4141418E
:103FB0003E7F494949417F090909013E4141517309
:103FC0007F0808087F00417F41002040413F017F7A
:103FD000081422417F404040407F021C027F7F0442
:103FE00008107F3E4141413E7F090909063E41518B
:103FF000215E7F09192946264949493203017F017B
:10400000033F4040403F1F2040201F3F4038403F7B
:10401000631408146303047804036159494D430091
:104020007F4141410204081020004141417F0402C8
:10403000010204404040404000030708002054545F
:1040400078407F284444383844444428384444283D
:104050007F385454541800087E090218A4A49C7890
:104060007F0804047800447D40002040403D007FEC
:104070001028440000417F40007C047804787C08CC
:104080000404783844444438FC18242418182424A0
:1040900018FC7C08040408485454542404043F4485
:1040A000243C4040207C1C2040201C3C4030403CB4
:1040B00044281028444C9090907C4464544C440014
:1040C0000836410000007700000041360800020178
:1040D0000204023C2623263C1EA1A161123A404064
:1040E000207A3854545559215555794121545478E2
:1040F00041215554784020545579400C1E5272127B
:104100003955555559395454545939555454580002
:1041100000457C410002457D420001457C40F0297C
:104120002429F0F0282528F07C54554500205454CB
:104130007C547C0A097F493249494932324848480F
:1041400032324A4848303A4141217A3A4240207856
:10415000009DA0A07D39444444393D4040403D3C51
:1041600024FF2424487E4943662B2FFC2F2BFF0974
:1041700029F620C0887E0903205454794100004468
:104180007D413048484A32384040227A007A0A0A53
:10419000727D0D19317D2629292F282629292926C6
:1041A00030484D4020380808080808080808382F0B
:1041B00010C8ACBA2F102834FA00007B0000081495
:1041C0002A142222142A14089500220095AA0055C8
:1041D00000AAAA55AA55AA000000FF00101010FF5F
:1041E00000141414FF001010FF00FF1010F010F066
:1041F000141414FC001414F700FF0000FF00FF1457
:1042000014F404FC141417101F10101F101F1414A2
:10421000141F00101010F0000000001F10101010EC
:104220001F10101010F010000000FF1010101010E0
:1042300010101010FF10000000FF140000FF00FF1E
:1042400000001F10170000FC04F4141417101714BA
:1042500014F404F40000FF00F714141414141414DC
:10426000F700F7141414171410101F101F1414144F
:10427000F4141010F010F000001F101F0000001FB9
:1042800014000000FC140000F010F01010FF10FFEC
:10429000141414FF141010101F00000000F010FF81
:1042A000FFFFFFFFF0F0F0F0F0FFFFFF0000000065
:1042B00000FFFF0F0F0F0F0F38444438447C2A2AA9
:1042C0003E147E02020606027E027E0263554941CA
:1042D000633844443C04407E201E2006027E0202D5
:1042E00099A5E7A5991C2A492A1C4C7201724C30E9
:1042F0004A4D4D303048784830BC625A463D3E49C0
:104300004949007E0101017E2A2A2A2A2A44445F63
:10431000444440514A444040444A51400000FF0157
:1043200003E080FF000008086B6B08361236243665
:10433000060F090F060000181800000010100030CA
:1043400040FF0101001F01011E00191D1712003C52
:104350003C3C3C00000000007843000800000020C6
:104360002800000002360008A043000828000020B2
:10437000180E000012360008AE2010B0C800104021
:1043800081FFA1A6A83FA4D300D5F0D922DA12DB81
:10439000208D14AF0024F400010100001000000083
:040000050800019559
:00000001FF
